:100000006F00605F00000000320100003601000058
:1000100000000000000000000000000000000000E0
:1000200000000000000000000000000000000000D0
:10003000C405000000000000C6050000000000002C
:10004000C8050000CA050000CC050000CE05000070
:10005000D0050000D2050000D4050000D605000040
:10006000D8050000DA050000DC050000DE05000010
:10007000E0050000E2050000E4050000E6050000E0
:10008000E8050000EA050000EC050000EE050000B0
:10009000F0050000F2050000F4050000000000007B
:1000A000511126C022C206C4828282441244A24058
:1000B00031018280634E050263C305042E86AA8542
:1000C0007D5515C285466378B6006356C0000606A6
:1000D0008606E36CB6FE014563E4C500918D558D3F
:1000E00085820582F5FA82808682C93F2E858282CA
:1000F0003305A04063D70500B305B040C1B7B305D1
:10010000B0408682653F3305A0408282868263C705
:100110000500634905005D372E858282B305B04036
:10012000E35B05FE3305A040513F3305B0408282BA
:1001300000007300203001A0EFF29FF62A84894569
:1001400037350140EF00E0687DD9A28537350140A1
:10015000AD2D854537350140AD2D65DD3735014085
:10016000BD251375F50F91B7EFF29FF31305F00F4F
:10017000E13725BFEFF2DFF22A840146C14537158A
:100180000140F92322854D3F0546C1453715014001
:10019000C12321BFEFF2DFF0B707002003C507003E
:1001A000B707002083C7170099C31365850013653F
:1001B0000508C937DDBDEFF2BFEE71112A841305C2
:1001C0000004AE84453F0146C1453715014049232F
:1001D0001375F4001365050C8537014437070020BB
:1001E000631A94000546C1453715014095235D37D4
:1001F000110165BD931614009307C701B6978823B4
:100200003EC00504153F82478A23218105892D3789
:10021000F1B7EFF2FFE80146C145371501400D2B5C
:1002200013052004113F814401443D3F33159500DF
:10023000498C850491471374F40FE398F4FE054646
:10024000C145371501402923228585B5EFF25FE5C9
:100250001305000405370146C14537150140CD2976
:100260001305000CD13D41447D1401451374F40F76
:10027000E1357DF80546C14537150140D12935B531
:10028000EFF21FE231118545056502C002C202C4CA
:1002900002C623180100E921B70704013EC0B707D1
:1002A00002003EC2B707000285073EC4B7078000C0
:1002B000938707028A85373501403EC6C9218545A7
:1002C00037350140F5215101CDB3EFF27FDD5111FA
:1002D00085451305000302C002C202C451218D47A7
:1002E0003715014041443EC28A85854713050540C4
:1002F0007C8022C459268A8537150140608022C43B
:10030000AD2E930700027C808A85E14737150140B6
:100310003EC4A526930700047C808A85F1473715E3
:1003200001403EC4992E930700087C808A8591473E
:10033000371501403EC49126310185BBEFF25FD6EF
:1003400009452129112C5137253F49290137B70784
:1003500000201D47370400202380E7001304C40158
:10036000153DA1450145813D6D35B7070020238C22
:10037000A7001C3013771500F99BD98F1CB0935739
:10038000154013F717003C30F99BD98F3CB09357B9
:10039000254013F717005C30F99BD98F5CB0935759
:1003A000354013F717007C30F99BD98F7CB09357F9
:1003B000454013F717001C34F99BD98F1CB4935791
:1003C000554013F717003C34F99BD98F3CB4935731
:1003D000654013F717005C34F99BD98F5CB47C340B
:1003E00013577500F99BD98F7CB41DC113073007D3
:1003F00058A01307000578A013079007930700047F
:1004000018A41307D0063CA038A458A47CA491BF1C
:100410002301040023020400230304002304040036
:100420002305040023060400230704001DBFB7179B
:1004300002409843B706FFFC61111367170098C389
:10044000D843758FD8C39843B706F7FEFD16758F4E
:1004500098C39843B706FCFFFD16758F98C3D84321
:10046000C176FD16758FD8C337079F0098C7984F80
:100470001367070298CF37170140832607401306FA
:10048000074093F6F6F02320D7408326074093E6F3
:1004900006082320D740094718CA02C002C2984F55
:1004A000B706014021661367170098CFD842518FD5
:1004B000D8C29843C16637060200558F98C3B71655
:1004C000024009679C42F18F3EC2824785073EC0C9
:1004D000924781E78247E397E7FEB71702409C43C4
:1004E0001397E7006358070685473EC212478547C2
:1004F0006310F706B72702409843C176FD16719B3B
:1005000098C398431367170098C3B7170240D8439E
:10051000D8C3D843758FD8C3D843C166558FD8C3C5
:100520009843B7060001558F98C398439316670008
:10053000E3DD06FED843B7160240719BD8C3D8430B
:1005400013672700D8C32147DC42B18BE39EE7FE47
:100550002101828002C259BFEFF29FB437170240D7
:100560005C43370400209146B18B1304440163853A
:10057000D700A1466380D704B7376E019387076021
:100580001CC0B7160240DC420840918313F7F70005
:10059000B707002093874700BA978C23DC4293F576
:1005A000F50F93F707083357B50099E3013E2A8703
:1005B00018C0E5BC5C43B777DC02938707C0C9B7B6
:1005C00001A001A001A001A001A001A001A001A023
:1005D00001A001A001A001A001A001A001A001A013
:1005E00001A001A001A001A001A001A001A001A003
:1005F00001A001A001A09701002093812122138175
:1006000081FE170500001305E5209705002093855E
:10061000659F17060020130666A063FAC5008322B3
:10062000050023A0550011059105E3EAC5FE170555
:1006300000201305A59E9385C1816377B500232013
:1006400005001105E36DB5FE9302000873900230BA
:100650008D4273904280970200009382A29A93E2A7
:10066000320073905230EFF09FDC970200009382CB
:1006700022CD73901234730020309C45611122C248
:1006800026C013F7070113F3F70001C7D8413363FE
:10069000E30092211377F60F29C783230500014752
:1006A00013048002930480048546B395E600B37674
:1006B000B6006392D50293122700BD46B39656004A
:1006C00093C6F6FFB3F37600B3125300B3E37200A0
:1006D000639787064CC90507A146E317D7FC23207B
:1006E00075001307F00F6378C70483234500A14604
:1006F00013048002930480040547B312D7003377B4
:1007000056006394E202139726000117BD45B39586
:10071000E50093C5F5FFB3F375003317E300B3634A
:10072000770063928702232A550085064147E395A7
:10073000E6FC232275001244824421018280E39C5E
:1007400097F80CC949BFE39297FE23285500F1BFE3
:1007500019C20CC982804CC9828023AAA1808280E0
:1007600099C5371702401C4F5D8D08CF8280B7179F
:100770000240984F1345F5FF798D88CF82801A216A
:100780008D6793870704B6217D8F9E21D58FD62153
:10079000D58FF621D58F9625D58FB625D58FD62521
:1007A000D58FF625D58FD98F1EA19E291EA98280AF
:1007B0001E2189C593E707041EA18280C207C18359
:1007C00093F7F7FBC207C183C5BF4EA582804A25B8
:1007D00082800A256D8D3335A0008280EFF25F8C18
:1007E000B707002003A54701B7157A0093850520B8
:1007F000EFF0DF8C1375F50F238DA1809317550053
:10080000898F8A073E950E05239CA1806FF0FF8992
:1008100002080000010203040506070801020304A0
:0808200005060708006CDC026C
:00000001FF
